:020000040800F2
:10000000B8510020E902000847170008111600083F
:10001000451700081F060008491D000800000000E1
:10002000000000000000000000000000290200089D
:1000300021060008000000008502000801180008E1
:100040000303000803030008030300080303000878
:100050000303000803030008030300080303000868
:100060000303000803030008030300080303000858
:100070000303000803030008030300080303000848
:100080000303000803030008030300080303000838
:100090000303000803030008030300080303000828
:1000A0000303000803030008030300080303000818
:1000B0000303000803030008030300080303000808
:1000C00003030008030300080303000803030008F8
:1000D00003030008911B00089D1B00080D1C00086D
:1000E00003030008030300080303000803030008D8
:1000F00003030008030300080303000803030008C8
:1001000003030008030300080303000803030008B7
:1001100003030008030300080303000803030008A7
:100120000303000803030008030300080303000897
:100130000303000803030008030300080303000887
:100140000303000803030008030300080303000877
:100150000303000803030008030300087D1C0008D4
:100160000303000803030008030300080303000857
:100170000303000803030008030300080000000055
:10018000030300080303000800F002F800F03CF845
:100190000AA090E8000C82448344AAF10107DA45E2
:1001A00001D100F031F8AFF2090EBAE80F0013F0F8
:1001B000010F18BFFB1A43F001031847E036000097
:1001C00000370000103A24BF78C878C1FAD8520727
:1001D00024BF30C830C144BF04680C6070470000C1
:1001E0000023002400250026103A28BF78C1FBD840
:1001F000520728BF30C148BF0B6070471FB503F0DE
:100200003BFB1FBD10B510BD00F0D0F91146FFF744
:10021000F5FF01F0ABFD00F0EEF903B4FFF7F2FFDC
:1002200003BC00F0F5F900002C4B19680868B0E831
:10023000F04F80F30988BFF36F8F4FF0000080F319
:10024000118870470000000008480068006880F3CB
:1002500008884FF0000080F3148862B661B6BFF3DF
:100260004F8FBFF36F8F00DF00BF00BF08ED00E0CE
:10027000DFF80C00016841F470010160704700BFB5
:1002800088ED00E0EFF30980BFF36F8F134B1A681E
:100290001EF0100F08BF20ED108A20E9F04F10600B
:1002A00009B44FF0500080F31188BFF34F8FBFF3B4
:1002B0006F8F02F04DFC4FF0000080F3118809BCF5
:1002C00019680868B0E8F04F1EF0100F08BFB0ECD6
:1002D000108A80F30988BFF36F8F704724000020D5
:1002E000EFF3058070470000094880470948004740
:1002F000FEE7FEE7FEE7FEE7FEE7FEE7FEE7FEE7D6
:10030000FEE7FEE704480549054A064B7047000032
:10031000AD18000889010008B84B0020B851002032
:10032000B84D0020B84D002053EA020C00F069805F
:100330002DE9F04B4FF00006002B1FBFB3FA83F5F9
:1003400003FA05F424FA05F65E4012BF1643B2FA2A
:1003500082F502FA05F4C5F120051EBF22FA05FC5C
:1003600044EA0C04203556EA044C4FEA144418BF02
:10037000641C4FF000084FF00009904271EB030C31
:1003800039D3002919BFB1FA81F701FA07F6B0FA9B
:1003900080F700FA07F6C7F120071EBF20FA07FC16
:1003A00046EA0C062037B6FBF4FCA7EB0507103F26
:1003B00007F01F0BCBF120060CFA0BFB2CFA06F60C
:1003C00044BFB3460026202FA4BF5E464FF0000B6B
:1003D0005BEA060C08BF4FF0010B19EB0B09ABFBF6
:1003E000027C48EB0608C01B06FB02CC0BFB03CCCF
:1003F00071EB0C01C1E70B46024641464846BDE899
:10040000F08B13B54FF000004FF00001AFF3008008
:10041000BDE81C407047032A40F2308010F0030C06
:1004200000F0158011F8013BBCF1020F624498BF47
:1004300011F801CB00F8013B38BF11F8013BA2F1E4
:10044000040298BF00F801CB38BF00F8013B11F05F
:10045000030300F05780083AC0F0088051F8043BCD
:10046000083A51F804CBA0E80810F5E7121D5CBF6C
:1004700051F8043B40F8043BAFF30080D20724BF9F
:1004800011F8013B11F801CB48BF11F8012B24BF33
:1004900000F8013B00F801CB48BF00F8012B704782
:1004A00002F0FF0343EA032242EA024200F05EB890
:1004B0004FF0000200B5134694469646203922BFFD
:1004C000A0E80C50A0E80C50B1F12001BFF4F7AF48
:1004D000090728BFA0E80C5048BF0CC05DF804EB2A
:1004E000890028BF40F8042B08BF704748BF20F898
:1004F000022B11F0804F18BF00F8012B7047704796
:100500007047704710B5203AC0F00B80B1E8185022
:10051000203AA0E81850B1E81850A0E81850BFF4ED
:10052000F5AF5FEA027C24BFB1E81850A0E818508C
:1005300044BF18C918C0BDE810405FEA827C24BFE0
:1005400051F8043B40F8043B08BF7047D20728BF6E
:1005500031F8023B48BF11F8012B28BF20F8023BBD
:1005600048BF00F8012B70474FF000020429C0F08B
:10057000128010F0030C3FF49DAFCCF1040CBCF1E1
:10058000020F18BF00F8012BA8BF20F8022BA1EB27
:100590000C01FFF78FBF5FEAC17C24BF00F8012B7D
:1005A00000F8012B48BF00F8012B7047754600F09A
:1005B0002BF8AE4605006946534620F007008546F5
:1005C00018B020B5FFF79EFEBDE820404FF00006B2
:1005D0004FF000074FF000084FF0000B21F007012B
:1005E000AC46ACE8C009ACE8C009ACE8C009ACE86E
:1005F000C0098D46704710B50446AFF30080204611
:10060000BDE81040FFF709BE00487047584B002076
:1006100001491820ABBEFEE7260002007047FEE746
:10062000704700007FB5002500958DF80000F6208A
:100630008DF8010001958DF804208DF80210100A44
:10064000089C8DF805308DF803008DF806406B206E
:100650008DF80700029503956B1E08226946024833
:1006600000F085FF7FBD0000AC0100207FB50025B4
:1006700000958DF80000F6208DF8010001958DF8A9
:1006800004208DF80210100A089C8DF805308DF8B2
:1006900003008DF806406B208DF807000295039546
:1006A0006B1E08226946024800F061FF7FBD000012
:1006B000F401002072B6FEE72DE9F0410446876D93
:1006C00000F050F9064694F835000025022806D0BF
:1006D0008020606584F834500120BDE8F0812068F6
:1006E000016821F0160101602068416921F0800154
:1006F0004161206C08B9A06C20B12068016821F02C
:10070000080101602068016821F0010101600CE02E
:1007100000F028F9801B052807D9202060650320F8
:1007200084F8350084F83450D7E720680068C007A3
:10073000EED194F85C103F208840B860012084F826
:10074000350084F834500020C7E790F835100229AE
:1007500003D08021416501207047052180F83510C4
:100760000068016821F00101016000207047406DC0
:10077000704700002DE9F84FDFF8BCA100220125E9
:1007800003264FF00F090AF1040BAAF1040E00BF73
:100790000B6805FA02F42340A34270D10F7907F0E9
:1007A0000307012F01D0022F16D187684FEA4208B4
:1007B00006FA08FC27EA0C07D1F80CC00CFA08FC72
:1007C0004CEA070CC0F808C04768A7430C79C4F38B
:1007D000001494403C4344600C79E443A4070AD0DD
:1007E000C4684FEA420C06FA0CF7BC438F6807FA5C
:1007F0000CF72743C7600C7904F00304022C12D1D4
:10080000D40800EB840CDCF820405707FF0E09FAEF
:1008100007F824EA0804D1F8108008FA07F848EA33
:100820000408CCF8208004684FEA420C06FA0CF762
:10083000BC430F7907F0030707FA0CF7274307605B
:100840004C6814F4403F70D03C4C276847F4804714
:100850002760246822F0030704F480440094384C95
:1008600007EB040CDCF8084897074FEA177809FAF9
:1008700008F7BC43334FB84202D1002724E054E0CC
:10088000314FB84201D101271EE0304FB84201D1AB
:10089000022719E02E4FB84201D1032714E02D4F53
:1008A000B84201D104270FE02B4FB84201D10527F0
:1008B0000AE02A4FB84201D1062705E0284FB84286
:1008C00001D1072700E0082707FA08F72743CCF8EB
:1008D0000878DAF800405746D1F804C09C435FEA34
:1008E000CC2C00D51C433C60DBF800405F46D1F8BF
:1008F00004C09C435FEA8C2C00D51C433C60DEF8AE
:1009000000407746D1F804C09C435FEA8C3C00D598
:100910001C433C60084F083F3C68D1F804C09C432E
:100920005FEACC3C00D51C433C60521C102AFFF40B
:100930002FAFBDE8F88F0000083C0140443802406A
:100940000030014000000240000402400008024064
:10095000000C024000100240001402400018024047
:10096000001C02400148806870470000140000200D
:1009700002488168027811448160704714000020A9
:100980000B4810B5016841F400710160016841F441
:1009900080610160016841F480710160032000F012
:1009A00073F80F2000F006F800F024F8002010BDC6
:1009B000003C024070B50D4D04464FF47A71287822
:1009C000B1FBF0F00A490968B1FBF0F000F010FB50
:1009D00048B9102C07D200222146501E00F034F8EE
:1009E00000206C6070BD012070BD0000140000206C
:1009F000200000200C4882B0016841F48041016071
:100A0000006800F4804000900748001F016841F032
:100A1000805101600068002200F0805000900F219A
:100A2000901E02B000F010B844380240002809DBE4
:100A300000F01F02012191404009800000F1E020F8
:100A4000C0F8001170470000F0B40E4B1B680C4654
:100A5000C3F30223C3F10705042D00D90425191D92
:100A6000072901D2002300E0DB1E012606FA05F16A
:100A7000491E214099409E40761E16403143F0BCED
:100A800001F063B90CED00E0064900F007020868C8
:100A90004FF6FF03184040EA0220034A1043086063
:100AA000704700000CED00E00000FA052DE9F0476A
:100AB0000E46050065D0DFF81481D8F80000F7B2C3
:100AC00000F00700B04207D288F80070D8F80000A4
:100AD00000F00700B04254D128683D4C810712D580
:100AE000400703D5206840F4E050206028780007D4
:100AF00003D5206840F4604020602068A96820F099
:100B0000F000084320602878C0072DD0304968687D
:100B10000839012812D0022813D0032811D00968FF
:100B2000890700292DDA216821F0030101432160A2
:100B3000FFF718FF814641F2883A0EE00968890301
:100B4000EFE709688901ECE7FFF70CFFA0EB09016B
:100B5000514502D90320BDE8F0872068696800F09C
:100B60000C00B0EB810FEFD1D8F80010404601F037
:100B70000701B14207D90770006800F00700B042D2
:100B800001D00120E7E72878400705D52068E9680B
:100B900020F4E050084320602878000706D520683C
:100BA000296920F4604040EAC100206000F038F874
:100BB0002168084AC1F30311515CC8400649086026
:100BC00006480068FFF7F6FE0020C4E7003C02403C
:100BD0000838024082380008200000201800002059
:100BE0000448054900680968044AC1F38221515C40
:100BF000C8407047200000200838024092380008A2
:100C00000448054900680968044AC1F34231515C4F
:100C1000C840704720000020083802409238000881
:100C2000154810B5006810F00C02144813D0144990
:100C3000042A0FD0082A0ED10F4C241F22682368E3
:100C400002F03F025B0207D52068C0F38810A0FBCA
:100C5000010106E0084610BD2168C1F38811A1FB1F
:100C600000010023FFF760FB2168C1F30141491C2B
:100C70004900B0FBF1F010BD083802400024F40038
:100C800040787D012DE9F84F04006ED02078DFF820
:100C90004C93C007A9F104054AD009F1040001688A
:100CA000C1F38101012908D00068C0F38100022846
:100CB0000AD1D9F80000400206D52868800337D54C
:100CC00060680028E1D033E06068B0F5803F10D064
:100CD000B0F5A02F286810D020F480302860286854
:100CE00020F4802028606068A8B1FFF73BFE06462C
:100CF0000DE0286840F48030F4E740F4802028605C
:100D0000F7E700BFFFF72EFE801B642873D8286822
:100D10008003F7D50CE0FFF725FE064605E000BF8F
:100D2000FFF720FE801B6428F0D828688003F7D4E2
:100D30002078DFF8AC8280074FF0000A3ED5A74844
:100D4000001D016811F00C0F08D00068C0F381008D
:100D500002280BD1D9F80000400207D42868800788
:100D600016D5E068012800D112E033E1E068B8B19F
:100D70000120C8F80000FFF7F5FD064605E000BFBA
:100D8000FFF7F0FD801B0228C0D828688007F7D540
:100D90002868216920F0F80040EAC10028600DE0D1
:100DA000C8F800A0FFF7DEFD064604E0FFF7DAFD15
:100DB000801B02281FD828688007F7D420780007F6
:100DC00022D5864F87486169703771B10121016072
:100DD000FFF7C8FD064604E0FFF7C4FD801B0228AC
:100DE00009D838688007F7D50EE0C0F800A0FFF7F3
:100DF000B9FD064605E082E0FFF7B4FD801B02283E
:100E00007DD838688007F7D42078400768D5DFF8A8
:100E1000CCB100270BF13C0BDBF80000C0000BD479
:100E2000DBF8001041F08051CBF80010DBF8000037
:100E3000012700F0805000906B4E3068C00510D440
:100E4000306840F480703060FFF78CFD009005E062
:100E5000FFF788FD0099401A022850D83068C00575
:100E6000F6D55E4EA0686C3601280FD00528306894
:100E700010D020F001003060306820F004003060B5
:100E8000A068B8B1FFF76EFD00900FE0306840F049
:100E90000100F4E740F004003060F7E7FFF762FD7F
:100EA0000099411A41F28830814266D83068800743
:100EB000F4D50EE0FFF756FD009007E0FFF752FD76
:100EC0000099411A41F28830814256D83068800733
:100ED000F4D42FB1DBF8001021F08051CBF80010D2
:100EE000A069C8B33D49091D0968C1F38101022900
:100EF0004AD00228504607D0C8F8600000E03CE025
:100F0000FFF730FD04463BE04746C8F86000FFF7B6
:100F100029FD064605E000BFFFF724FD801B0228DF
:100F20002BD828688001F7D4D4E907010843A16AC7
:100F30002E4A490802EB0141626A41EA82110843E4
:100F400094F82C1040EA0161C9F8001001203866BD
:100F5000FFF708FD044606E03EE000BFFFF702FD94
:100F6000001B022809D828688001F7D534E000BFAB
:100F7000FFF7F8FC001B022802D90320BDE8F88F18
:100F800028688001F4D427E00128F7D0D9F80000C0
:100F9000E26900F4800191421CD1226A00F03F0115
:100FA000914217D147F6C071626A0140B1EB821FCE
:100FB00010D1A26A4FF0FF3300F4403103EB52022C
:100FC000B1EB024F06D194F82C1000F07060B0EB3A
:100FD000016F01D00120D1E70020CFE704380240A3
:100FE00000004742800E4742007000400000FFFFB3
:100FF00010B5401EB0F1807F01D3012010BD4FF02D
:10100000E02460610F21601700F09FFE0020A061C6
:1010100007202061002010BD704770B5044620688D
:101020000C3050E8001F21F4F07140E80012002A53
:10103000F5D12068143050E8001F21F0010140E88C
:101040000012002AF5D1206B012809D120680C304C
:1010500050E8001F21F0100140E80012002AF5D1ED
:10106000206840694FF0100600064FF0000515D5C6
:101070002068143050E8001F21F0800140E8001281
:10108000002AF5D1A06B48B10565A06BFFF714FBF2
:1010900020B1A06BFFF76BFB202824D020684069AB
:1010A000400615D52068143050E8001F21F040019B
:1010B00040E80012002AF5D1E06B48B10565E06B0D
:1010C000FFF7FAFA20B1E06BFFF751FB20280AD0B6
:1010D000E584E5856564202084F8420084F84100B9
:1010E0002563002070BD6664032070BD704700005A
:1010F000F8B5016804460868CA684B6910F00F0F1C
:101100004FF0000559D003F0010602F49077374301
:1011100065D0C10705D0D10503D5616C41F001014F
:101120006164410705D5D90703D0616C41F0020124
:101130006164810705D5D90703D0616C41F00401D2
:101140006164010707D502F02001314303D0616CCF
:1011500041F008016164616C00293AD0800604D531
:10116000900602D5204600F0D7FB20684069616CEC
:10117000C0F38010090700D460B3204600F0A5FB3F
:1011800020684069400621D52068143050E8001FCF
:1011900021F0400140E80012002AF5D1E06BA8B12F
:1011A00072490165E06BFFF7D0FA002811D0E06BBF
:1011B000016D01B0BDE8F040084783060FD59306E6
:1011C0000DD52046BDE8F84000F0A6BB2046FFF74D
:1011D0008DFFF8BD2046FFF789FF6564F8BD266BDB
:1011E0002023012E7ED1C6067CD5D6067AD5086886
:1011F0004868009048694FF0020640064DD5E26B02
:10120000106840684FF480770004000C3AD0A18D3C
:10121000814237D9E085D069B8422DD020680C30A2
:1012200050E8001F21F4807140E80012002AF5D137
:101230002068143050E8001F21F0010140E800123E
:10124000002AF5D12068143050E8001F21F0400139
:1012500040E80012002AF5D184F842302563206866
:101260000C3050E8001F21F0100140E80012002A65
:10127000F5D1E06BFFF720FA6663A08DE18D401A8F
:1012800081B206E0A18D8142A8D1D069B842A5D132
:1012900066632046FFF7C0FEF8BDA08DE18D401AC1
:1012A00081B2E08D0028F7D00029F5D020680C30FD
:1012B00050E8002F22F4907240E80027002FF5D16B
:1012C0002068143050E8002F22F0010240E8002787
:1012D000002FF5D184F84230256320680C3050E8A7
:1012E000002F00E006E022F0100240E80023002B6F
:1012F000F3D1CDE705062BD5150629D594F8410085
:101300002128C9D1A068B0F5805F01D12069B0B1B2
:10131000206A411C2162216800784860E08C401EF0
:101320000004000CE084B7D12068C16821F080017E
:10133000C1602068C16841F04001C160F8BD206A09
:101340000088C0F308004860206A801C2062E5E73E
:101350004006F3D55006F1D5CA68204622F0400277
:10136000CA6084F8413000F052F9F8BDBD18000899
:1013700070B5040004D094F84100002510B106E0D7
:10138000012070BD84F84050204600F023F824204E
:1013900084F841002068C16821F40051C1602046F2
:1013A00000F01CFB2068016921F490410161206874
:1013B000416921F02A0141612068C16841F400516E
:1013C000C1606564202084F8410084F842006563B0
:1013D000002070BD2DE9F04387B004461421684613
:1013E000FFF766F85348524B26680021514A1438DB
:1013F000022403250727DFF840914FF0C00C9E42DE
:101400001FD1136843F010031360126802F010023A
:101410000592026842F002020260006802AB00F02E
:101420000200059083E8A200CDE900C46946484661
:10143000FFF7A0F9002205212520FFF705FB252055
:1014400025E03C4BDFF8F4801B1F464524D11A6889
:1014500042F400321A601A6802F4003205920268FF
:1014600042F001020260006802AA00F0010005904B
:1014700082E8A2000C20CDE9000469463048FFF75D
:1014800079F9002205212620FFF7DEFA2620FFF752
:10149000CDFA07B0BDE8F083DFF8A880464521D13A
:1014A0001A6842F480221A601A6802F480220592B7
:1014B000026842F002020260006802AA00F0020024
:1014C000059082E8A2004FF44060CDE9000469462F
:1014D0004846FFF74FF9002205212720FFF7B4FA0D
:1014E0002720D4E7184B9E42D3D1136843F0200342
:1014F0001360126802F020020592026842F00402B2
:1015000002600068CDF800C000F004000590CDE94D
:1015100001410820CDE9035069460C48FFF72AF93C
:10152000002205214720FFF78FFA4720AFE7000090
:1015300000100140443802400004024000440040D2
:101540000000024000480040001401400008024032
:1015500090F84230202B01D00220704721B11AB1FF
:101560000023036300F0C0BA0120704770472DE9E3
:10157000F843044690F84100984616460D46202848
:1015800002D00220BDE8F88385B17EB100206064FE
:10159000212084F84100FFF7E5F9A6848146E6841E
:1015A000A0682027B0F5805F02D003E00120E9E7C2
:1015B000206910B12E4600250EE000260CE08021A7
:1015C000204600F0ACFAA8B9C6B116F8010B2168A4
:1015D0004860E08C401EE084E08C4B464FF00002F7
:1015E000CDF800800028EAD14FF04001204600F0FD
:1015F00096FA40B184F841700320C3E735F8020B36
:10160000C0F30800E3E784F841700020BAE77047B0
:10161000FEE700F0DFB80000114808B5016841F0AE
:1016200004010160016801F004010091016841F0CA
:1016300080010160016801F080010091016841F0C2
:1016400001010160016801F001010091016841F0B0
:1016500002010160006800F00200009008BD000077
:10166000303802400C4810B50A4901604FF4E131AE
:101670004160002181600C22C160C0E904128161D7
:10168000C161FFF775FE002803D0BDE81040FFF7E9
:1016900011B810BD00100140640100200C4810B5C5
:1016A0000A4901604FF4E1314160002181600C2260
:1016B000C160C0E904128161C161FFF759FE0028D1
:1016C00003D0BDE81040FEF7F5BF10BD0044004058
:1016D000AC0100200C4810B50A4901604FF4E1311B
:1016E0004160002181600C22C160C0E90412816167
:1016F000C161FFF73DFE002803D0BDE81040FEF7B2
:10170000D9BF10BD00480040F40100200C4810B5BE
:101710000A4901604FF4E1314160002181600C22EF
:10172000C160C0E904128161C161FFF721FE002898
:1017300003D0BDE81040FEF7BDBF10BD001401404E
:101740003C020020FEE7FEE72DE9F04100240646BA
:101750008D1F1CE0305DAA2818D130194179552918
:1017600014D141788778C278007909B101290DD167
:101770000AB1012A0AD171B10021884601461046FA
:1017800000F00BF83946404600F015F8641CAC42F6
:10179000E0DDBDE8F0810121EFE708B548B10020A8
:1017A0000022134600920A4601460120FEF75EFF22
:1017B00008BD0120F4E708B548B100200022134617
:1017C00000920A4601460120FEF72CFF08BD0120C9
:1017D000F4E700001CB500210520CDE900010B460F
:1017E0004FF4806202A1054801F0FCFD1CBD000021
:1017F0005561727436436D6400000000F91C0008E6
:1018000010B5FFF7B5F801F045FE012803D0BDE89B
:10181000104001F049BA10BD30B593B03021684690
:10182000FEF746FE14210CA8FEF742FE1D480025D7
:10183000016841F080510160006800F08050119013
:101840001948016841F4804101600068022400F4F5
:101850008040119001200390102004900094069481
:101860000820CDE90750A820CDE9090404200B90F9
:101870006846FFF707FA08B172B6FEE70CA90F2019
:1018800081E831004FF4A0500F904FF48050109039
:1018900005210CA8FFF70AF9002801D072B6FEE76F
:1018A00013B030BD4038024000700040024801686B
:1018B00041F470010160704788ED00E010B5806B65
:1018C0000021C185FFF712FC10BD01680C3151E801
:1018D000002F22F4907241E80023002BF5D101681B
:1018E000143151E8002F22F0010241E80023002BBF
:1018F000F5D1016B012909D101680C3151E8002FA4
:1019000022F0100241E80023002BF5D1202180F8BD
:10191000421000210163704708B590F84210222957
:1019200001D0022008BD82684FF480539A4201D151
:10193000016921B1816A9A421BD04AB10AE002686A
:10194000816A5268C2F308020A80816A891C08E031
:10195000026972B10268526802F07F020A70816AFD
:10196000491C8162C18D491E0904090CC18503D03F
:101970001BE002685268F1E70168CA6822F02002A1
:10198000CA600168CA6822F48072CA6001684A6944
:1019900022F001024A61202180F8421000214163B7
:1019A000026B012A03D0FFF7E1FD002008BD0163AF
:1019B00001680C3151E8002F22F0100241E80023A9
:1019C000002BF5D101680A68D20602D50A68496879
:1019D0000091818DFFF720FBE7E7000070B504461A
:1019E00000680169E26821F44051114301612169F5
:1019F000A068E26908436169114308432168CA6825
:101A000049F20C639A430243CA6020684169A269A3
:101A100021F440711143416131492068884202D06C
:101A20003049884202D1FFF7EBF801E0FFF7D8F820
:101A3000E2690023192164253226B2F5004F62685D
:101A400028D0A0FB0101930F9200FEF76DFC014628
:101A5000B0FBF5F06FF01802504301EB800006EB8D
:101A60000010B0FBF5F000F0F002B1FBF5F002EB76
:101A70000012B1FBF5F06FF01803584301EB800042
:101A800006EB0010B0FBF5F000F00F0021681044E9
:101A9000886070BDA0FB010192185B41FEF744FC19
:101AA0000146B0FBF5F00201B1FBF5F06FF0180351
:101AB000584301EB800006EBC000B0FBF5F000F0EE
:101AC000F80002EB4002B1FBF5F0584301EB800057
:101AD00006EBC000B0FBF5F000F00700D6E7000011
:101AE000001001400014014081628285C2850021FE
:101AF0004164222180F84210016921B10168CA685D
:101B000042F48072CA6001684A6942F001024A6187
:101B10000068C16841F02001C160002070472DE9D4
:101B2000F843984617460D460446089E24E0701C6C
:101B300022D0FEF717FFA0EB0800B0421AD8CEB1B2
:101B40002068C168490717D5802D15D0402D13D0C6
:101B50000168C94309070FD4016800254068009057
:101B60002046FFF7B2FE0820606484F84050012050
:101B7000BDE8F8830320FBE72068006835EA000031
:101B800004D00020B842D2D00020F1E70120F9E7CC
:101B90000148FFF7ADBA000064010020174808B5FE
:101BA00001680A68D243D20622D40B680022496831
:101BB0000091C18D4023C1F1400189B2C38520232A
:101BC00080F84230481E3F2812D80D4801800D4849
:101BD0000092006860B1694601F023FA009838B1BC
:101BE00009494FF080500860BFF34F8FBFF36F8FEC
:101BF000BDE808400148FFF77BBA0000AC010020B7
:101C00000C0000200000002004ED00E0174808B59B
:101C100001680A68D243D20622D40B6800224968C0
:101C20000091C18D4023C1F1400189B2C3852023B9
:101C300080F84230481E3F2812D80D4801800D48D8
:101C40000092006860B1694601F0EBF9009838B184
:101C500009494FF080500860BFF34F8FBFF36F8F7B
:101C6000BDE808400148FFF743BA0000F401002036
:101C70000E0000200400002004ED00E0194808B523
:101C800001680A68D20627D50B68002249680091CE
:101C9000C18D4023C1F1400189B2C385202380F862
:101CA0004230481E3F2812D80F4801800F4800924A
:101CB000006860B1694601F0B4F9009838B10C4988
:101CC0004FF080500860BFF34F8FBFF36F8F4022FB
:101CD00008490448FFF73CFCBDE808400148FFF70D
:101CE00007BA00003C02002010000020080000207D
:101CF00004ED00E0240100200F4E104D90B04FF095
:101D0000FF3800274146306801F076FA0128F9D102
:101D10002C880B4922466846FEF77DFB2F80402227
:101D200007490848FFF714FC062CEBD32146684608
:101D3000FFF70AFDE6E70000080000201000002081
:101D4000240100203C020020FEE70907090E0028BC
:101D500004DB00F1E02080F80014704700F00F0071
:101D600000F1E02080F8141D70470000FEF708FE27
:101D7000FFF752FDFFF750FCFFF790FCFFF7AAFCBE
:101D8000FFF770FCFFF7C2FC03220021012000F0E6
:101D9000A1FF214C032200212060012000F09AFFC6
:101DA000606003220021012000F094FFA0601B4826
:101DB000FFF733F91A48FFF730F91A48FFF72DF902
:101DC00016480068C16841F01001C16014480068FD
:101DD000C16841F01001C16012480068C16841F05B
:101DE0001001C160402210490C48FFF7B1FB0E49B9
:101DF000402240310A48FFF7ABFB0B4940228031BB
:101E00000848FFF7A5FBFFF7E5FC00F00FF8FFF728
:101E100000FC00F01DF8FEE700000020AC010020EF
:101E2000F40100203C020020A4000020EFF3058014
:101E300010B16FF0050070470448016811B14FF010
:101E4000FF307047012101600020704774000020BE
:101E500010B5EFF3058010B16FF0050010BD084814
:101E60000168012902D04FF0FF3010BD054A002162
:101E700082F8141D0221016000F01EFE002010BD3A
:101E8000740000200BE000E02DE9F041134C0F46F8
:101E90000546E6682068001D00F050FC681C07D16C
:101EA00037B12168BDE8F0410D48091D00F096BC2E
:101EB00020683544B5424560216805D2A06BBDE875
:101EC000F041091D00F072BC606B091D00F06EFC52
:101ED000A06A854200D2A562BDE8F08124000020FE
:101EE000740700202DE9F041054600F083FC2D4CDD
:101EF000A068401CA06020682B4F10B1606930B30F
:101F00002BE02560A068012827D1002606EB86007B
:101F100007EB800000F03CFC761C382EF6D32348FB
:101F200000F036FC2148143000F032FC1F48283005
:101F300000F02EFC1D483C3000F02AFC1B485030BD
:101F400000F026FC194860631430A06305E02068A7
:101F5000E96AC06A884200D82560606A401C6062F5
:101F60006864E86A2169884200D9206100EB80003A
:101F700007EB8000291D00F031FC00F05BFC60697C
:101F800000280CD02068E96AC06A884207D2084954
:101F90004FF080500860BFF34F8FBFF36F8FBDE8E5
:101FA000F081000024000020C4020020240700204B
:101FB00004ED00E038B500F01DFC104C2068C8B9F5
:101FC0000F4800F0E5FB0E48143000F0E1FB0C4830
:101FD000E060143020610A4B0020F03B009003F1D8
:101FE000500210210A2000F096FE206010B105A1D9
:101FF00000F0A2FCBDE8384000F01CBC60000020EE
:1020000078080020546D72510000000030B4026C5A
:102010000B46002A0BD0C1681144C1608468A142FC
:1020200001D30168C16030BC1846FEF7F4B930BC7A
:1020300070472DE9F041856B174604460026026C77
:1020400082B1C7B1E068FEF7E6F9E168206C091AD1
:10205000E1602268914202D2A168081AE060022F72
:1020600016D017E02068A8B9A06801F08BFA0646E0
:102070000020A0600EE06068FEF7CDF9216C60687A
:1020800008446060A168884204D32068606001E071
:1020900005B16D1E6D1CA5633046BDE8F08110B51D
:1020A000044690F8590058B101280CD002280FD0EE
:1020B000502080F31188BFF34F8FBFF36F8FFEE77F
:1020C000206B00F0CBFB2046BDE8104000F0C6BB03
:1020D00010BD000010484FF47051420706D0C01DDB
:1020E0000D4920F00700411AC1F570510B4A002339
:1020F0000144C2E900030839183A21F007011160D0
:102100004B600B600B1AC0E9001393604FF0004066
:102110005360506170470000580F0020900000206D
:10212000144E154CA6F29C474FF08058DFF84C90A7
:1021300012E000BF00F05EFBF068C568281D00F0EB
:10214000FDFAA068401EA0606068401E606000F05C
:1021500071FB2846FFF7A3FF60680028EAD13868C2
:102160000128F9D9C9F80080BFF34F8FBFF36F8FF3
:10217000F2E70000600700202400002004ED00E0EA
:1021800070B51D46049C51B1C4F80020C4E90F018C
:102190000121204600F0F2FD84F84C5070BD24600F
:1021A000F4E700002DE9F05F8846DDE90B94154661
:1021B000834691009A460A9EA522206BFEF770F98D
:1021C0006FF00301206B01EB8501084420F0070745
:1021D000780707D0502080F31188BFF34F8FBFF3EB
:1021E0006F8FFEE70025B8F1000F0FD05FF0000001
:1021F000221818F8001082F8341018F8001011B1E5
:10220000401C1028F4D384F8435001E084F8345083
:10221000382E00D33726E662C4E91365201D00F08E
:10222000C2FA04F1180000F0BEFA2461C6F13800C9
:102230006462A061656584F8585052465946384634
:1022400000F066FA2060B9F1000F01D0C9F8004033
:10225000BDE8F09F30B5114900E011460A6882429E
:10226000FBD34B685C18844203D140681844486033
:10227000084643681C18944209D1084C183C24684D
:10228000A24209D052681A4442600A681268026089
:10229000814200D0086030BD0460F9E79000002062
:1022A00070B5002441600B4D0061914206D8D11AEF
:1022B0008269914206D2011D286907E09A4203D241
:1022C000994201D3012403E0011DE86800F06EFA91
:1022D000204670BD6000002010B5044600F08AFA68
:1022E000A06B28B15FF0000400F0A4FA204610BDF6
:1022F0000124F9E730B589B03C4D6EE00498002820
:1023000006DADDE90601059A90470498002864DBA7
:10231000069C606910B1201D00F010FA03A800F0BF
:10232000D7F8024604980A2857D2DFE800F00505DE
:10233000052D334A05052D3394F8280040F001009F
:1023400084F828000599A069059B01442046FFF701
:10235000A7FF68B3216A2046884794F82800400701
:102360003BD5002000900598A1690023421819462A
:10237000204601F04DFAD8B9502080F31188BFF300
:102380004F8FBFF36F8FFEE714F8280F20F0010086
:10239000207022E094F8280040F0010084F8280022
:1023A0000598A06128B1811813462046FFF778FFF1
:1023B00013E0502080F31188BFF34F8FBFF36F8F6E
:1023C000FEE794F82800810703D4204600F046FA7F
:1023D00003E020F0010084F82800002204A9286806
:1023E00000F06EFE002889D109B030BD60000020E9
:1023F0002DE9FC410F46054600F0A2FB01A800F0C4
:1024000067F80446019818B101F070F9BDE8FC8145
:10241000254EAFB130690068D0B30027291B3A467A
:10242000306800F09DFA01F061F90028EED11F49F3
:102430004FF080500860BFF34F8FBFF36F8FE5E719
:10244000A542EBD801F052F9F0682746C068C4688D
:10245000201D00F073F994F82800410719D5A069F0
:102460002B4641193A462046FFF71AFFA8B1002033
:102470000346014600902A46204601F0C9F960B99A
:10248000502080F31188BFF34F8FBFF36F8FFEE7AB
:1024900007E020F0010084F82800216A20468847E0
:1024A000B4E70127BAE700006000002004ED00E077
:1024B0000648416B096829B1416BC968C968496818
:1024C000816270474FF0FF31FAE7000024000020DE
:1024D00070B5054600F0ECFF064E0446B068844235
:1024E00003D200F009F8012000E000202860204617
:1024F000B46070BD60000020F8B5194D20E0C068E0
:10250000C4680668201D00F019F9216A2046884732
:1025100094F82800400713D5A0693044B04206D98A
:1025200024616060211DE86800F040F908E00020A7
:102530000346014600903246204601F069F938B161
:10254000E86801680029DAD12969C5E90310F8BDF6
:10255000502080F31188BFF34F8FBFF36F8FFEE7DA
:102560006000002008484068401C4FF0500080F395
:10257000118804D0BFF34F8FBFF36F8FFEE7BFF317
:102580004F8FBFF36F8FFEE798000020074CE06885
:10259000016841B1C0680021D0F80000FFF728FFB2
:1025A000FFF7A8FEF3E701210020F7E76000002015
:1025B0002DE9F041044600F01DF994F9455004F16D
:1025C000240609E0606A48B1304601F057F808B1C6
:1025D00000F0F0F96D1E6DB2002DF3DC4FF0FF3608
:1025E00084F8456000F026F900F004F994F94450AD
:1025F00004F1100709E0206948B1384601F03EF8BF
:1026000008B100F0D7F96D1E6DB2002DF3DC84F82F
:102610004460BDE8F04100F00DB900002DE9F04143
:102620000546002700F08CFA324E306808B9FFF7F3
:1026300051FD706905424ED1C5B3083568070ED00B
:1026400005F00700C0F108000544680707D05020D6
:1026500080F31188BFF34F8FBFF36F8FFEE72DB369
:102660007068854237D82348183001460C6801E06D
:1026700020460C466168A94202D221680029F7D1A0
:1026800031688C4227D0076821680160606808378C
:10269000411B10290FD96019420708D0502080F340
:1026A0001188BFF34F8FBFF36F8FFEE713E04160D8
:1026B0006560FFF7CFFD61687068401A7060B268AE
:1026C000904200D2B060706901430020C4E900016B
:1026D000F068401CF06001F009F8780707D050203E
:1026E00080F31188BFF34F8FBFF36F8FFEE738463B
:1026F000BDE8F081780000200449086818B1086836
:10270000026D521C0265086870470000240000201A
:1027100010B5031F4FF080741C601B1F21F00101D6
:102720001960191F044B0B6014390A60091F6FF000
:10273000020244380A6010BD65250008D0E9013264
:1027400001699A60D0E901235A604A68824201D146
:1027500082684A60002202610868401E08600868BA
:1027600070470000034B036003F15C0008608020A9
:1027700010607047A0080020044B036003F15C0068
:1027800008604FF48070106070470000FC0A002061
:1027900000F108014FF0FF32C0E90112C160016190
:1027A00000210160704700210161704730B50B685E
:1027B0005A1C02D000F1080202E0026904E022463D
:1027C000546825689D42FAD953684B6099608A60C5
:1027D000516008610168491C016030BD42684A606F
:1027E00093688B6093685960916008610168491C27
:1027F00001607047502080F31188BFF34F8FBFF303
:102800006F8F0A494868401C486001280CD108486D
:10281000006810F0FF0F07D0502080F31188BFF33D
:102820004F8FBFF36F8FFEE77047000098000020C6
:1028300004ED00E00849486828B1401E486001D115
:1028400080F311887047502080F31188BFF34F8FB9
:10285000BFF36F8FFEE700009800002070B50028DE
:102860002AD0164DA0F1080460686969084207D1B2
:10287000502080F31188BFF34F8FBFF36F8FFEE7B7
:1028800022683AB1502080F31188BFF34F8FBFF315
:102890006F8FFEE78843606000F052F960686968F6
:1028A000084468602046FFF7D5FC2869401C286171
:1028B000BDE8704000F01ABF70BD00007800002035
:1028C0004FF0E02000210161816105494FF47A72E7
:1028D0000968B1FBF2F1491E4161072101617047AE
:1028E0002000002010B5FDF7FBFC114910280ED385
:1028F00000F1E02090F8F0030A78904207D25020CF
:1029000080F31188BFF34F8FBFF36F8FFEE7094845
:102910000068896800F4E060884207D9502080F39D
:102920001188BFF34F8FBFF36F8FFEE710BD00001C
:10293000980000200CED00E010B5084B002200BF0D
:1029400053F832401CB1521C082AF9D310BD43F889
:10295000321003EBC201486010BD00008402002069
:1029600070B515460E460446FFF744FF94F944102F
:102970000020491C01D184F8440094F94510491CF9
:1029800001D184F84500FFF755FFA06B28B92A460E
:10299000314604F1240000F02BF82046BDE87040D9
:1029A000FFF706BE02490A6A0260C96841607047C3
:1029B0002400002001490120C86170472400002044
:1029C00010B50C4650B1094909681831FFF7EEFE01
:1029D0002046BDE810400121FFF756BA502080F391
:1029E0001188BFF34F8FBFF36F8FFEE724000020E5
:1029F00070B514460D4668B10A4909681831FFF7E9
:102A0000EDFE0CB14FF0FF3521462846BDE8704081
:102A1000FFF73ABA502080F31188BFF34F8FBFF30E
:102A20006F8FFEE72400002070B504003ED0226DB9
:102A3000A2B1E06C884200D30146E06A884235D0FA
:102A4000012A33D11A4D2A6894420FD1502080F3C5
:102A50001188BFF34F8FBFF36F8FFEE7502080F3D5
:102A60001188BFF34F8FBFF36F8FFEE7E162A2695A
:102A7000002A02DBC1F13801A1610E4E00EB80009B
:102A8000616906EB8000814210D1201DFFF756FEE0
:102A9000E06A2969884200D9286100EB800006EBD2
:102AA0008000211DBDE87040FFF798BE70BD00009A
:102AB00024000020C402002030B587B00024039415
:102AC00005AA04A903A80494FFF74CFEDDE903015D
:102AD0000094CDE90110002315A11748059A00F0D4
:102AE000AEFC164D0028E8621FD000F061FE012800
:102AF00009D0401C19D1502080F31188BFF34F8FAB
:102B0000BFF36F8FFEE7502080F31188BFF34F8F24
:102B1000BFF36F8F4FF0FF30A86201206861EC6057
:102B200007B0BDE8304000F045B807B030BD000048
:102B300049444C45000000002121000824000020E9
:102B40000248016B491C016370470000240000200B
:102B5000164810B5016B11B10121C16110BD0021F2
:102B6000C1610169124A01E0B9B1491E01EB81035B
:102B700052F82330002BF7D001EB810302EB8302E4
:102B800002F1080453685B685360A34201D15B689B
:102B90005360DA680260016110BD502080F3118833
:102BA000BFF34F8FBFF36F8FFEE7000024000020BC
:102BB000C40200201CB537480168374A914207D14A
:102BC000502080F31188BFF34F8FBFF36F8FFEE764
:102BD00000683149491E884207D1502080F311888E
:102BE000BFF34F8FBFF36F8FFEE72C49087801903A
:102BF000FF20087008788DF800009DF800009DF80F
:102C0000002000F0F000904207D0502080F311889F
:102C1000BFF34F8FBFF36F8FFEE79DF80000204C8E
:102C200000F0500020700720A06005E09DF8002013
:102C300052008DF80020401E9DF800201206F5D4A9
:102C4000A060032807D0502080F31188BFF34F8F76
:102C5000BFF36F8FFEE74FF44070A06001980870DB
:102C60000C482030016841F470010160016841F0B6
:102C700070410160FFF724FE00206060FDF7F8FA64
:102C80000848016841F040410160FDF7DDFA00208D
:102C90001CBD000000ED00E071C20F4100E400E047
:102CA0009800002034EF00E010B5502080F3118828
:102CB000BFF34F8FBFF36F8F00F000FC18B10449D2
:102CC0004FF080500860002080F3118810BD000094
:102CD00004ED00E0F8B517460E46050013D005FBDD
:102CE00006F05030FFF79AFC04000AD0002084F868
:102CF000460004F150023B46314628460094FFF757
:102D00003FFA2046F8BD502080F31188BFF34F8F63
:102D1000BFF36F8FFEE738B5049D18B153B1CAB148
:102D200081B120E0502080F31188BFF34F8FBFF3B3
:102D30006F8FFEE7502080F31188BFF34F8FBFF3F2
:102D40006F8FFEE7502080F31188BFF34F8FBFF3E2
:102D50006F8FFEE739B1502080F31188BFF34F8F9A
:102D6000BFF36F8FFEE750241C46012384F84630E2
:102D70002B460094FFF704FA204638BD70B50D4687
:102D8000040025D0FFF736FDD4E90F20216802FBAF
:102D90000011A1600021A163216861600A46D4E9A5
:102DA0000F01401E00FB0121E16021464FF0FF3082
:102DB00001F8440F487004F110008DB1FFF7E8FCF2
:102DC00004F12400FFF7E4FCFFF734FD012070BD9F
:102DD000502080F31188BFF34F8FBFF36F8FFEE752
:102DE00021690029F0D000F049FC0028ECD004490A
:102DF0004FF080500860BFF34F8FBFF36F8FE3E752
:102E000004ED00E02DE9FF4782B01D468A464FF0F1
:102E10000008040003D0BAF1000F08D011E05020E0
:102E200080F31188BFF34F8FBFF36F8FFEE7206CE5
:102E300038B1502080F31188BFF34F8FBFF36F8FED
:102E4000FEE7022D0AD1E06B012807D0502080F365
:102E50001188BFF34F8FBFF36F8FFEE700F01AFBAF
:102E60003F4F4FF000094FF0805648B9049838B1F1
:102E7000502080F31188BFF34F8FBFF36F8FFEE7B1
:102E8000FFF7B8FCA06BE16B884207D3022D05D099
:102E90000498D0B1B8F1000F1AD01EE02A4651466E
:102EA0002046FFF7C6F8616A19B104F1240000F06A
:102EB000E5FB20B13E60BFF34F8FBFF36F8FFFF78D
:102EC000B9FC012006B0BDE8F087FFF7B3FC22E0B3
:102ED0006846FFF767FD4FF00108FFF7ABFCFFF70F
:102EE0002FFEFFF787FC94F94400401C01D184F8C1
:102EF000449094F94500401C01D184F84590FFF7B7
:102F000099FC04A9684600F033FA30B12046FFF777
:102F10004FFB00F0EBFB0020D4E7FFF76BFCA06B4E
:102F2000E16B884213D1FFF785FC04F1100004998E
:102F3000FFF746FD2046FFF73BFB00F0D7FB0028DC
:102F40009ED13E60BFF34F8FBFF36F8F98E7FFF7BF
:102F500071FC2046FFF72CFB00F0C8FB90E7000057
:102F600004ED00E02DE9F0471F4690468946040035
:102F700003D0B9F1000F08D011E0502080F3118880
:102F8000BFF34F8FBFF36F8FFEE7206C38B1502037
:102F900080F31188BFF34F8FBFF36F8FFEE7022FCF
:102FA0000AD1E06B012807D0502080F31188BFF3CD
:102FB0004F8FBFF36F8FFEE7FFF794FC5020EFF3C6
:102FC000118680F31188BFF34F8FBFF36F8FA06B13
:102FD000E16B884206D3022F04D0002086F31188CB
:102FE000BDE8F08794F94550A06B3A464946204623
:102FF000FFF71FF8681C04D06D1C84F845500120B1
:10300000ECE7606A0028FAD004F1240000F036FBF7
:103010000028F4D0B8F1000FF1D00121C8F8001059
:10302000EDE770B50E46040009D0206C78B1502051
:1030300080F31188BFF34F8FBFF36F8FFEE75020EF
:1030400080F31188BFF34F8FBFF36F8FFEE72068C7
:1030500048B9A06838B1502080F31188BFF34F8F72
:10306000BFF36F8FFEE7FFF73DFC5020EFF31185B4
:1030700080F31188BFF34F8FBFF36F8FA16BE06BAD
:10308000884218D994F94500491CA163411C04D019
:10309000401C84F8450001200EE0606A0028FAD048
:1030A00004F1240000F0EAFA0028F4D0002EF2D057
:1030B00001203060EFE7002085F3118870BD00002B
:1030C0002DE9F747002683B08A46040003D0BAF101
:1030D000000F08D011E0502080F31188BFF34F8F0C
:1030E000BFF36F8FFEE7206C38B1502080F311885A
:1030F000BFF34F8FBFF36F8FFEE700F0CBF9DFF820
:10310000F4804FF000094FF0805748B9059838B166
:10311000502080F31188BFF34F8FBFF36F8FFEE70E
:10312000FFF768FBA56BC5B151462046FEF76EFF61
:103130006D1EA563206950B104F1100000F09EFAE5
:1031400028B1C8F80070BFF34F8FBFF36F8FFFF740
:1031500071FB012006B0BDE8F087059808B11EB1EB
:1031600006E0FFF767FB27E06846FFF71BFC012638
:10317000FFF760FBFFF7E4FCFFF73CFB94F944002A
:10318000401C01D184F8449094F94500401C01D1C1
:1031900084F84590FFF74EFB05A9684600F0E8F873
:1031A000002820460AD0FFF703FA00F09FFA2046D5
:1031B000FFF792F80028B3D00020CBE7FFF78CF898
:1031C00090B104F124000599FFF7FAFB2046FFF7C0
:1031D000EFF900F08BFA0028A2D1C8F80070BFF315
:1031E0004F8FBFF36F8F9BE72046FFF7E1F900F0A9
:1031F0007DFA95E704ED00E02DE9F343002683B066
:103200000400354609D0206C78B1502080F3118835
:10321000BFF34F8FBFF36F8FFEE7502080F311880D
:10322000BFF34F8FBFF36F8FFEE700F033F9DFF886
:103230003C814FF000094FF0805748B9049838B1ED
:10324000502080F31188BFF34F8FBFF36F8FFEE7DD
:10325000FFF7D0FAA06BC8B1401EA063206810B978
:10326000FFF74AFAA060206950B104F1100000F0A5
:1032700005FA28B1C8F80070BFF34F8FBFF36F8F06
:10328000FFF7D8FA012005B0BDE8F083049808B133
:1032900066B10FE03DB1502080F31188BFF34F8F2E
:1032A000BFF36F8FFEE7FFF7C5FA5DE06846FFF7F3
:1032B00079FB0126FFF7BEFAFFF742FCFFF79AFA07
:1032C00094F94400401C01D184F8449094F94500DD
:1032D000401C01D184F84590FFF7ACFA04A9684678
:1032E00000F046F80028204612D0FFF761F900F000
:1032F000FDF92046FEF7F0FF0028A9D09DB3FFF7A7
:1033000079FA606A50B3206B0068C0F1380126E09A
:10331000FEF7E2FFE0B1206838B9FFF76BFAA0686A
:1033200000F070F90546FFF785FA04F124000499CE
:10333000FFF746FB2046FFF73BF900F0D7F90028DE
:1033400086D1C8F80070BFF34F8FBFF36F8F7FE750
:103350002046FFF72DF900F0C9F979E70021A068B0
:10336000FFF762FB9FE7FFE700208CE704ED00E03A
:103370002DE9F0410C46050011D0C4B1FFF73AFA2F
:10338000174BDA686E682068911B471C17D02F68AE
:103390001B6A9F4219D0964217D8012410E0502092
:1033A00080F31188BFF34F8FBFF36F8FFEE750207C
:1033B00080F31188BFF34F8FBFF36F8FFEE70024B8
:1033C000FFF738FA2046BDE8F081884205D9401A57
:1033D00020602846FFF7E6FAF1E700202060DCE7EE
:1033E000240000202DE9FF5F8346DDE90E87994622
:1033F00016468A469000FFF711F905001CD05C20A4
:10340000FFF70CF9040014D00020256384F859005C
:10341000CDE90240CDE900874B4632465146584639
:10342000FEF7C0FE2046FEF75DFD012004B0BDE8BA
:10343000F09F2846FFF712FA4FF0FF30F6E7F0B59D
:1034400085B0DDE90B640A9DA6B1DCB15C2700976D
:103450002663022684F85960002604AFCDE90246AF
:10346000CDE90057FEF79EFE2046FEF73BFD04988F
:1034700005B0F0BD502080F31188BFF34F8FBFF32C
:103480006F8FFEE7502080F31188BFF34F8FBFF39B
:103490006F8FFEE70548416919B1006B18B1002034
:1034A0007047012070470220704700002400002070
:1034B0000148C06870470000240000202DE9F04159
:1034C0002E4C0027206B28B1A069401CA061384613
:1034D000BDE8F081E668761CE66013D1606B006899
:1034E00038B1502080F31188BFF34F8FBFF36F8F37
:1034F000FEE7606BA16B6163A063206A401C2062E1
:10350000FEF7D6FFA06ADFF87880864209D3606BA9
:103510000068A0B1606BC068C5686868864211D257
:10352000A0622068C06A00EB800158F821000128E1
:1035300000D90127E0690028C9D00127C7E74FF06B
:10354000FF30EDE7281DFFF7F9F8A86A18B105F17B
:103550001800FFF7F3F8E86A2169884200D9206172
:1035600000EB800108EB8100291DFFF737F9E86ABD
:103570002168C96A8842CAD30127C8E7240000200D
:10358000C402002070B504004FF0000133D01B4D81
:103590002868844207D0502080F31188BFF34F8FF2
:1035A000BFF36F8FFEE7206D38B1401E2065E36CDE
:1035B000E26A9A421FD040B11DE0502080F311888A
:1035C000BFF34F8FBFF36F8FFEE7201DFFF7B6F8F5
:1035D000E06CE062C0F13800A061E06A29698842CD
:1035E00000D92861064900EB800001EB8000211D15
:1035F000FFF7F4F80121084670BD00002400002008
:10360000C402002070B504004FF000002BD0194D0B
:10361000E16A2A68D26A914226D2A069002804DBB6
:103620002868C06AC0F13800A061134E01EB810127
:10363000606906EB8101884211D1201DFFF77EF8F9
:103640002868C06AE0622969884200D9286100EBD5
:10365000800006EB8000211DFFF7C0F802E028681B
:10366000C06AE062012070BDE16C2A68D26A9142B2
:10367000F8D370BD24000020C402002070B5C068DB
:10368000C46854B104F118000646FFF757F8144D0A
:10369000286B50B13146134815E0502080F3118853
:1036A000BFF34F8FBFF36F8FFEE7201DFFF746F884
:1036B000E06A2969884200D928610B4900EB800043
:1036C00001EB8000211DFFF789F8E06A2968C96ACB
:1036D000884202D90120E86170BD002070BD000061
:1036E000240000204C070020C40200202DE9F047F0
:1036F0002C4D00242746286B38B1FFF77BF8286B48
:10370000401E2863286B40B146E0502080F31188AA
:10371000BFF34F8FBFF36F8FFEE7A968224E0120E2
:10372000D1B3A6F5916980463068E0B1F068C4680D
:1037300004F11800FFF702F8201DFEF7FFFFE06A12
:103740002969884200D9286100EB800109EB8100DA
:10375000211DFFF743F8E06A2968C96A8842E3D36C
:10376000C5F81C80E0E70CB1FEF7A2FEAC694CB1D5
:103770004FEA0806FFF7A2FE00B1EE61641EF9D120
:103780000020A861E86938B10849012738070860B6
:10379000BFF34F8FBFF36F8FFFF74CF83846BDE88C
:1037A000F0870000240000204C07002004ED00E01A
:1037B00010B586B0FEF7FEFB114C2068B8B10020B2
:1037C0000390049005AA04A903A8FEF7D5FFDDE93C
:1037D000032102208DE8070000230AA10B48059A67
:1037E000FFF72DFE606010B106B0012010BD502023
:1037F00080F31188BFF34F8FBFF36F8FFEE7000098
:1038000060000020546D7220537663008D250008FF
:103810002DE9FF411E46134602000A9D4FF00000AD
:1038200016D0144C2768002F0FD0CDE90013029258
:10383000062917DAFFF72EFE02284FF000030FD0FB
:10384000002269462068FFF7DDFA04B0BDE8F08188
:10385000502080F31188BFF34F8FBFF36F8FFEE7C7
:103860002A46EEE70023324669463846FFF77AFBE0
:10387000EBE70000600000204FF04070E1EE100A1E
:10388000704700000000000000000102030406076A
:10389000080900000000010203040000BC38000811
:1038A00000000020A4000000C401000860390008E6
:1038B000A400002014510000E001000800000000F6
:1038C00000000000000000000000000000000000F8
:1038D0000100000010000000000000000024F400BF
:1038E00000000000000000000000000000000000D8
:1038F00000000000000000000000000000000000C8
:1039000000000000000000000000000000000000B7
:1039100000000000000000000000000000000000A7
:103920000000000000000000000000000000000097
:103930000000000000000000000000000000000087
:103940000000000000000000000000000000000077
:103950000000000000000000AAAAAAAA00000000BF
:040000050800018965
:00000001FF
